:020000040800F2
:1000000090B00020750200081B0D0008570B000877
:10001000190D0008310900085514000800000000FF
:10002000000000000000000000000000DD010008EA
:10003000E90900080000000021020008151000086E
:100040008F0200088F0200088F0200088F0200084C
:100050008F0200088F0200088F0200088F0200083C
:100060008F0200088F0200088F0200088F0200082C
:100070008F0200088F0200088F0200088F0200081C
:100080008F0200088F0200088F0200088F0200080C
:100090008F0200088F0200088F0200088F020008FC
:1000A0008F0200088F0200088F0200088F020008EC
:1000B0008F020008791000088F0200088F020008E4
:1000C0008F0200088F0200088F0200088F020008CC
:1000D0008F020008A51200088F0200088F02000896
:1000E0008F0200088F0200088F0200088F020008AC
:1000F0008F0200088F0200088F0200088F0200089C
:100100008F0200088F0200088F0200088F0200088B
:100110008F0200088F0200088F0200088F0200087B
:100120008F0200088F0200088F0200088F0200086B
:1001300000F002F800F042F80AA090E8000C8244B7
:100140008344AAF10107DA4501D100F037F8AFF294
:10015000090EBAE80F0013F0010F18BFFB1A43F0A5
:10016000010318476C3C00008C3C0000103A24BF8F
:1001700078C878C1FAD8520724BF30C830C144BF0C
:1001800004680C607047000000230024002500264E
:10019000103A28BF78C1FBD8520728BF30C148BFEA
:1001A0000B607047642900F0F180732900F0FE8134
:1001B000002070471FB51FBD10B510BD00F08BFAB1
:1001C0001146FFF7F7FF01F035FA00F0A9FA03B482
:1001D000FFF7F2FF03BC01F077F90000224B19682A
:1001E0000868B0E8F00F80F30988BFF36F8F4FF015
:1001F000000080F311884EF00D0E704700000000E3
:1002000006480068006880F3088862B661B6BFF3EC
:100210004F8FBFF36F8F00DF00BF00BF08ED00E01E
:10022000EFF30980BFF36F8F0F4B1A6820E9F00FCF
:10023000106008B54FF0500080F31188BFF34F8F66
:10024000BFF36F8F02F03EFC4FF0000080F3118887
:10025000BDE8084019680868B0E8F00F80F3098825
:10026000BFF36F8F704700BF68000020EFF3058079
:10027000704700000948804709480047FEE7FEE74D
:10028000FEE7FEE7FEE7FEE7FEE7FEE7FEE7FEE746
:1002900004480549054A064B70470000291000082C
:1002A0003101000890AA002090B0002090AC0020FE
:1002B00090AC0020704700000FB4044910B503AAA9
:1002C000029800F077F910BC5DF814FB34000020B0
:1002D0002DE9F0410E460446002020622046E168E8
:1002E000884730B3252805D0D4E901219047206AFA
:1002F000401CF2E7E168204600278847050018D037
:10030000A5F14100192802D820354FF40067324684
:10031000294620462760FFF745FF40B1012804D059
:10032000F61D26F007060836D8E7361DD6E728461C
:10033000DAE7206ABDE8F08170B50C460546012A6F
:1003400005D02878800600D5EA69002302E0012361
:1003500005E05B1C934202D2E05C0028F9D1A86959
:10036000E618C01AA861286A184428622846AFF324
:10037000008004E0D5E9012114F8010B9047B44254
:10038000F8D32846AFF3008070BD00002DE9F0419E
:100390000646002410687529314616A510D0AFF323
:1003A0000080002802DA404213A507E031688A077E
:1003B00001D512A502E0490704D511A5012401E0E9
:1003C000AFF3008000210A2206F1240709E0B0FB08
:1003D000F2FCB0FBF2F302FB1C00303078541846FC
:1003E000491C0028F3D123462A463046BDE8F04197
:1003F00000F059B8000000002D0000002B000000A4
:1004000020000000032A40F2308010F0030C00F0BE
:10041000158011F8013BBCF1020F624498BF11F83E
:1004200001CB00F8013B38BF11F8013BA2F10402F7
:1004300098BF00F801CB38BF00F8013B11F003036F
:1004400000F0CA80083AC0F0088051F8043B083A2E
:1004500051F804CBA0E80810F5E7121D5CBF51F875
:10046000043B40F8043BAFF30080D20724BF11F8EF
:10047000013B11F801CB48BF11F8012B24BF00F854
:10048000013B00F801CB48BF00F8012B704702F098
:10049000FF0343EA032242EA024200F0D1B8704768
:1004A0007047704770472DE9F0470D4699469246D0
:1004B000044600F124080168880604D5E06921F0AB
:1004C0001001216000E00120A84201DD471B00E08F
:1004D0000027A1697A1902EB0900081AA0612078A7
:1004E000C00602D42046AFF30080002608E0D4E91D
:1004F00001211AF806009047206A401C761C2062F1
:100500004E45F4DB2078C0060AD52046AFF30080C4
:1005100006E0D4E9012130209047206A401C206287
:10052000381EA7F10107F4DC07E0D4E9012118F82F
:1005300005009047206A401C2062281EA5F1010595
:10054000F3DC2046AFF300802078000602D50220BD
:10055000BDE8F0870120FBE701694A1C02610878C9
:10056000704700B58FB0CDE90131002105910549F3
:100570007944CDE9031011466846FFF7A9FE0FB094
:1005800000BD0000E5FFFFFF10B5436913B1AFF3F5
:10059000008001E0FFF7D0FE012010BD127800F1CD
:1005A00024010A7000224A700122EDE711684FF021
:1005B000FF32E9E7074B70B50D467B44FFF7D1FFEB
:1005C0000446284600F05CF810B14FF0FF3070BDD3
:1005D000204670BD5F10000010B5203AC0F00B80BF
:1005E000B1E81850203AA0E81850B1E81850A0E837
:1005F0001850BFF4F5AF5FEA027C24BFB1E8185091
:10060000A0E8185044BF18C918C0BDE810405FEA00
:10061000827C24BF51F8043B40F8043B08BF70477C
:10062000D20728BF31F8023B48BF11F8012B28BF81
:1006300020F8023B48BF00F8012B70474FF0000242
:100640000429C0F0128010F0030C00F01F80CCF1E0
:10065000040CBCF1020F18BF00F8012BA8BF20F852
:10066000022BA1EB0C0100F011B85FEAC17C24BFA2
:1006700000F8012B00F8012B48BF00F8012B704750
:10068000007B00F0800070474FF0000200B5134679
:1006900094469646203922BFA0E80C50A0E80C50A2
:1006A000B1F12001BFF4F7AF090728BFA0E80C5053
:1006B00048BF0CC05DF804EB890028BF40F8042B4C
:1006C00008BF704748BF20F8022B11F0804F18BFB9
:1006D00000F8012B7047754600F02CF8AE46050077
:1006E0006946534620F00700854618B020B5FFF74D
:1006F000CFFDBDE820404FF000064FF000074FF05F
:1007000000084FF0000B21F00701AC46ACE8C0092F
:10071000ACE8C009ACE8C009ACE8C0098D46704738
:1007200010B50446AFF300802046BDE81040FFF747
:100730004EBD0000004870472CAA002000298168A7
:1007400002D041F0010101E021F001018160704718
:100750000D4910B5884202D1012144150AE00B4928
:10076000884202D10121041504E0094988420AD1D6
:100770000121CC03204600F097FB2046BDE8104045
:10078000002100F091BB10BD002401400028014071
:10079000003C0140014600208968490700D501203E
:1007A0007047C06C80B270470246002012680A424F
:1007B00000D001207047014600208968090700D554
:1007C0000120704710B542680E4B0C791A400B6837
:1007D00042EA04221343436082680B4B1A40D1E97A
:1007E000024323434C7942EA440213438360C26AC2
:1007F000097C22F47002491EC9B242EA0151C16269
:1008000010BD0000FFFEF0FFFDF7F1FF70B50726F9
:1008100009290AD9C568A1F10A0404EB4404A640D9
:10082000B543A3401D43C56007E0056901EB4104E2
:10083000A640B543A3401D4305611F23072A09D2E3
:10084000446B521E02EB820293409C4391400C4346
:10085000446370BD0D2A09D2046BD21F02EB8202E1
:1008600093409C4391400C43046370BDC46A0D3AAD
:1008700002EB820293409C4391400C43C46270BDE2
:10088000816841F00801816070470029816802D0C9
:1008900041F4A00101E021F4A0018160704781686A
:1008A00041F004018160704730B587B001214FF4F9
:1008B000017000F0EDFA4FF4004000F0D3FA06208A
:1008C000ADF8140000248DF8174005A9164800F073
:1008D0008CF8164D2846FFF73BFF4FF46020CDE91A
:1008E000020401208DF804408DF8100000948DF86A
:1008F000054069462846FFF765FF01212846FFF7B6
:100900001DFF2846FFF7BCFF2846FFF754FF0028CD
:10091000FAD12846FFF7C3FF2846FFF73BFF002820
:10092000FAD107B030BD00000008014000240140AA
:10093000FEE700002DE9F041264C0E46074615461D
:10094000FF21204600F082FD4021204600F0E6FC19
:100950000128F9D1FF21204600F078FD40212046F2
:1009600000F0DCFC0128F9D1FF21204600F06EFDEB
:100970004021204600F0D2FC0128F9D12B46324616
:10098000394615A0FFF798FC4021204600F0C6FC30
:100990000128F9D1FF21204600F058FD40212046D2
:1009A00000F0BCFC0128F9D1FF21204600F04EFDEB
:1009B0004021204600F0B2FC0128F9D1FF21204659
:1009C00000F044FD4021204600F0A8FC0128F9D1A8
:1009D000BDE8F081003801406164642025642C2565
:1009E000642C2564000000007047F0B5CC7800222C
:1009F00004F00F03E40601D58C7823430C784FF004
:100A00000F0C14F0FF0F4FF0010E1BD005680E887D
:100A10000EFA02F42640A64210D196000CFA06F710
:100A200025EA070703FA06F5CE783D43282E02D0C3
:100A3000482E02D002E0446100E00461521C082A02
:100A4000E5D305600A88FF2A1CD94468002202F118
:100A500008060EFA06F50E882E40AE420ED196001C
:100A60000CFA06F7BC4303FA06F7CE783C43282E6F
:100A700000D14561CE78482E00D10561521C082A6C
:100A8000E5D34460F0BD0000F0B5144C002801DA55
:100A9000E36900E06368450D2E0185B2C0F301579C
:100AA000B540C0F30342032F05D0C6020AD5032682
:100AB0009640B34307E023F07062636823F07063ED
:100AC000636002E0AB4343F0706201B12A43002847
:100AD00001DAE261F0BD6260F0BD0000000001409B
:100AE0000246002092680A4200D00120704701614E
:100AF0007047000010B50B4C014607230122204629
:100B0000FFF784FE01212046FFF7BFFE02212046A9
:100B1000FFF74AFE0028F9D02046BDE81040FFF755
:100B200040BE0000002401402DE9F04100250E46A2
:100B300007462C4608E03846FFF7DCFF0544052051
:100B400000F01EFD641CE4B2B442F4D3B5FBF6F031
:100B500080B2BDE8F081FEE708B50121142000F065
:100B600097F942F20200ADF8000048208DF803002A
:100B700069460748FFF739FF0120ADF8000028203B
:100B80008DF8030069460348FFF72FFF08BD0000FA
:100B900000100140000801402DE9F0410126264CDB
:100BA000DFF89880264D770308B1267001E02078A1
:100BB00078B102212846FFF793FF88B139462846CD
:100BC000FFF78EFF60B101214046FFF789FF012842
:100BD00006D002212846FFF783FF01281DD028E018
:100BE0000A2000F0CDFC0020207002212846FFF7EB
:100BF00077FF58B139462846FFF772FF48B1012107
:100C00004046FFF76DFF012805D012E00120BDE846
:100C1000F0810220FBE70320F9E739462846FFF779
:100C20005FFF012805D101214046FFF759FF00B9B8
:100C300026700020EBE700002C0000200008014097
:100C40000010014008B500201D4DADF800004FF424
:100C5000E1540020FFF7A0FF01282CD0022805D086
:100C6000032808D1BDF80000643002E0BDF80000A0
:100C7000C830ADF80000BDF8000064214843B0FB67
:100C8000F4F1002000F086F8BDF80000C0EB001081
:100C9000B0FBF4F1012000F07DF8286938B1BDF80F
:100CA000001021B100230A22694602F0EDF80A2063
:100CB00001F030FDCDE7BDF800006438D9E7000051
:100CC0000000002038B50121242000F0E1F84FF4A5
:100CD0008074ADF8004010208DF8030003200C4D07
:100CE0008DF8020069462846FFF77FFE2146284618
:100CF000FFF7FDFE0420074CADF8000069462046D2
:100D0000FFF773FE04212046FFF7F1FE38BD000017
:100D10000008014000140140FEE7704730B50F2382
:100D2000C27801780125F2B1144A126801F1E0217C
:100D300002F4E062C2F5E062120AC2F10404D34098
:100D40004278A24084781C401443220181F8002498
:100D5000007800F01F018D404009800000F1E02084
:100D6000C0F8005130BD01F01F00854048098000E7
:100D700000F1E020C0F8805130BD00000CED00E033
:100D80000249084302490860704700000000FA0564
:100D90000CED00E070B5254E0C460546FF213046AF
:100DA00000F054FB4021304600F0B8FA0128F9D198
:100DB000FF21304600F04AFB4021304600F0AEFAF9
:100DC0000128F9D1FF21304600F040FB4021304698
:100DD00000F0A4FA0128F9D12246294614A0FFF711
:100DE0006BFA4021304600F099FA0128F9D1FF2131
:100DF000304600F02BFB4021304600F08FFA0128EE
:100E0000F9D1FF21304600F021FB4021304600F0AF
:100E100085FA0128F9D1FF21304600F017FB402167
:100E2000304600F07BFA0128F9D170BD003801404E
:100E30006E25642E76616C3D256400000648002115
:100E4000064A016041608160C0E90312044AC0E9BA
:100E50000521C16170470000E8000020CDCCCC3DE9
:100E60008FC2F53C034A516821F44041014351606F
:100E70007047000000100240044A0029D16901D0E7
:100E8000014300E08143D16170470000001002403F
:100E9000044A0029916901D0014300E08143916136
:100EA0007047000000100240044A0029D16801D0B8
:100EB000014300E08143D160704700000010024010
:100EC00030B5204A5168204B11F00C0103D00429A1
:100ED00001D0082901D0036012E05168536801F481
:100EE00070114FF0020413F4803F04EB914102D0E3
:100EF00053689B0301D5154B00E0134B5943016028
:100F000051680F2303EA1111114B5C5C0168E14049
:100F100041605468072505EA14241C5D21FA04F495
:100F20008460546805EAD4241B5DD940C1605268CE
:100F3000032303EA9232064B1B1F9A5CB1FBF2F1CA
:100F4000016130BD0010024000127A0000093D002E
:100F50003C0000200CB50022264800920192016856
:100F600041F4803101604FF4A063016801F4003165
:100F700001910099491C0091019911B90099994278
:100F8000F3D10168890333D5012101911A490A6817
:100F900042F010020A600A6822F003020A600A683E
:100FA00042F002020A604168416041684160416864
:100FB00041F480614160416821F47C1141604168E5
:100FC00041F4E8114160016841F0807101600168FD
:100FD0008901FCD5416821F003014160416841F07D
:100FE000020141604168C1F381010229FAD10CBDBF
:100FF00001920CBD00100240002002404FF0E021A1
:101000000428086903D020F004000861704740F00C
:101010000400FAE710B502F0DBF8012803D0BDE8C0
:10102000104001F0C9BD10BD0F4810B5016841F076
:101030000101016041680D4A1140416001680C4A9C
:1010400011400160016821F480210160416821F4B0
:10105000FE0141604FF41F018160FFF77BFF0549EE
:101060004FF00060086010BD001002400000FFF863
:10107000FFFFF6FE08ED00E010B50A4C0121204606
:1010800000F069F800280AD00121204600F056F847
:101090000549D1F8880118B10020C1F8880110BDB8
:1010A0000120FAE7000400400080224230B50D46DE
:1010B000044689B001210220FFF7DEFE012109204C
:1010C000FFF7E6FE01211A48FFF7DEFC2022ADF80B
:1010D0001C2018228DF81F2003208DF81E0007A960
:1010E0001448FFF782FCADF80440ADF8005000242E
:1010F000114DADF80640ADF802406946284600F0B3
:1011000083F87021ADF80C100120ADF80E00ADF899
:10111000144003A9284600F02BF80821284600F0C7
:1011200067F80121284600F00CF809B030BD000036
:1011300000081A00000C014000040040C94301826D
:1011400070470029018802D041F0010101E021F03F
:1011500001010180704702460020138A92890B42E8
:1011600002EA010202D0002A00D0012070470000EC
:1011700070B5028C22F010020284028C8388048BEA
:101180000D8824F4E6464FF6FF7404EA052535433E
:101190000E8922F0200204EA061616434A8804EA61
:1011A00002123243104EB04202D0104EB04215D15E
:1011B00022F080064A8923F4406304EA0212324393
:1011C00022F040068A8804EA021232438E8904EA39
:1011D00086061E43CB8904EA830333438380058359
:1011E000C9880187028470BD002C01400034014091
:1011F000028B4FF6FF7322F4006203EA01211143D0
:10120000018370470187704730B502881B4C1C4D25
:10121000A0420DD0A8420BD0B0F1804F08D0194B9E
:10122000984205D0184B984202D0184B984203D1EF
:1012300022F070034A881A43154B984206D0154B8A
:10124000984203D022F44073CA881A4302808A88E5
:1012500082850A880285A0420AD0A84208D00E4A98
:10126000904205D00D4A904202D00D4A904201D1E1
:10127000097A01860121818230BD0000002C0140E5
:10128000003401400004004000080040000C004011
:1012900000100040001400400040014000440140A4
:1012A0000048014070B5154C40F22551204600F031
:1012B0003CF800280ED0204600F0C4F8104AC1B215
:1012C0001088030406D444044FF0000306D50A290D
:1012D00001D0138070BD40F400400DE00D2909D00D
:1012E000C0F30D04074D401C80B229551080C7285B
:1012F000EFD870BD40F48040108070BD00380140D0
:1013000032000020080100200029818902D041F428
:10131000005101E021F40051818170470246002014
:1013200012880A4200D00120704770B501F01F05F5
:1013300001260024C1F3421306FA05F2012B0FD057
:10134000022B0FD0838A4FEA11210088134206FA3C
:1013500001F600EA060001D000B10124204670BD6C
:101360008389F0E7038AEEE710B5C1F3421301F079
:101370001F040121A140012B07D0022B07D01430FC
:10138000002A026805D00A4304E00C30F8E7103068
:10139000F6E78A43026010BD30B50446008A85B086
:1013A0000D464CF6FF710840E98801432182A0896F
:1013B0004EF6F3110840A9882A8911436A8902432D
:1013C0001143A181A08A4FF6FF410840A98901433A
:1013D000A1826846FFF774FD1948844201D1039841
:1013E00000E00298A189090400EBC00101EB0010A4
:1013F000296801D5490000E08900B0FBF1F06422C2
:10140000B0FBF2F109010B096FF018056B4300EB1B
:101410008300A3891D044FF0320306D503EBC000FF
:10142000B0FBF2F000F0070005E003EB0010B0FBAA
:10143000F2F000F00F000843208105B030BD00003D
:10144000003801408088C0F308007047C1F30801EC
:1014500081807047FEE72DE9F0410446D4E90001A0
:10146000451AD4E90260714205EB4101084402F0DB
:10147000D1FAA16902F0E6FA8046284602F0CAFADB
:10148000616902F0DFFA0746A81B02F0C3FA21697E
:1014900002F0D8FA394602F03FFA414602F03CFA2F
:1014A00002F09CFAE1690844E061C4E9025640F6A2
:1014B0005431884201DBE16103E0002801DC0020B7
:1014C000E061E069BDE8F0817047000008B5174EA3
:1014D000174F184C4FF066356FF00B080A210120AA
:1014E000FFF722FBADF8000002F005F92A4633466B
:1014F00002F014F900223B4602F010F9424602F0D5
:1015000014FC02F0CBF882B200210120FFF712FA9E
:10151000606938B1BDF8001021B100230A22694684
:1015200001F0B2FC0A2001F0F5F8D7E766660A4040
:10153000000049400000002010B50420FFF75EFDC8
:101540000C480D490D4A0068B0FBF1F3B0FBF1F116
:101550004FF47A7041431370012050804FF0E02027
:10156000026942F0020202614161016941F0010138
:10157000016110BD1800002040420F002E00002025
:1015800070B5044601F024FE01280CD0094D68888E
:10159000844203D3B4FBF0F001F0BCF86888B4FBDC
:1015A000F0F100FB11444FF47A706043BDE87040E5
:1015B00000F002B82E00002070B54FF0E0250021A9
:1015C0006C69094AAB6912785043AA699A42FCD007
:1015D00002D2A3EB020302E0A4EB02063344194457
:1015E00013468142F1D370BD2E000020094901202D
:1015F000096809B1002070470749CA69002AF9D172
:10160000044A896828321268491E8A42F3D10220AE
:1016100070470000C85900206800002004490A886B
:101620005206FCD5024AC1B2121D1180704700005B
:10163000003801401CB54FF44070FFF7A1FBFFF7E5
:101640007BFF4FF4165000F00FFEFFF73BFBFFF758
:10165000F5FBFFF781FA00214FF4E150FFF726FD7B
:10166000FFF722F9002000F019F807490120CDE921
:1016700000010202002305A1074801F07DFD01F0F1
:10168000A9F900201CBD00000000002073746172E5
:10169000745F7461736B0000BD21000870B504466F
:1016A0000B480C4E002150F8240006EB8405420044
:1016B000286900F02DF806480021103050F8242049
:1016C000A86800F025F801203119087670BD0000E7
:1016D000B83D00084C00002010B50B4B0B4C00220D
:1016E00053F82030114604EB800005E0046934F81B
:1016F000114004B1521C491C8B42F7D8642042436C
:10170000B2FBF3F0C0B210BDB83D00084C000020A1
:1017100001E000F8011B521EFBD270471CB5134CB0
:10172000134E144F4FF0FF356069D8B12169C9B12C
:1017300000232A46694601F091FA98B100232A460F
:1017400001A9206901F08AFA60B1BDF80400306097
:10175000BDF8000070600648FFF77DFE81B2384694
:10176000FFF750FD0A2000F0D5FFDDE70000002064
:10177000E8000020000400402DE9F041184E0F461B
:101780000446F5683068001D00F0BEFD38B93068C9
:1017900090F82C1001208840316981433161601C30
:1017A00007D137B13168BDE8F0410E48091D00F09E
:1017B000E3BD30682C44AC424460316805D2B06B64
:1017C000BDE8F041091D00F0BFBD706B091D00F0C0
:1017D000BBFDB06A844200D2B462BDE8F081000073
:1017E00068000020F05900202DE9F041054600F086
:1017F000CFFD2D4EB068401CB06030682B4F10B14B
:10180000706930B32BE03560B068012827D100241F
:1018100004EB840007EB800000F088FD641C202CA2
:10182000F6D3234800F082FD2148143000F07EFDFD
:101830001F48283000F07AFD1D483C3000F076FD4E
:101840001B48503000F072FD194870631430B063CB
:1018500005E03068E96AC06A884200D83560706A7D
:101860000121401C70626864E86A3269814011435A
:10187000316100EB800007EB8000291D00F07CFD4A
:1018800000F0C2FD706900280CD03068E96AC06AB7
:10189000884207D207494FF080500860BFF34F8F4E
:1018A000BFF36F8FBDE8F081680000202057002053
:1018B000A059002004ED00E010B500F069FD0E4CC9
:1018C0002068A0B90D4800F031FD0C48143000F03C
:1018D0002DFD0A48E060143020610022102105200F
:1018E00001F080F9206010B105A100F0DFFEBDE835
:1018F000104000F089BD0000A4000020045A002020
:10190000546D72510000000070B5124E124D1CE073
:1019100001F0D0F8306820B1002401F089FDA4B9AD
:1019200001E00124F9E700F033FDF068C468201DF0
:1019300000F0EAFCA868401EA8606868401E686065
:1019400000F062FD204600F052F868680028DFD100
:1019500070BD0000DC5900206800002030B4026C2B
:101960000B46002A0BD0C1681144C1604468A142F3
:1019700001D30168C16030BC1846FEF743BD30BCDE
:1019800070472DE9F041856B174604460026026C2E
:1019900082B1C7B1E068FEF735FDE168206C091A35
:1019A000E1602268914202D26168081AE060022F69
:1019B00016D017E02068A8B9606801F091FC0646CF
:1019C000002060600EE0A068FEF71CFD216CA0689E
:1019D0000844A0606168884204D32068A06001E0E8
:1019E00005B16D1E6D1CA5633046BDE8F08110B5D4
:1019F0000446006B00F03AFD2046BDE8104000F0C0
:101A000035BD00000A4900200A69012A00D90120D9
:101A10000A68D26A0AB100207047064A1268012A91
:101A2000F9D80028F7D1886AC968401A70470000C1
:101A3000680000202057002010484FF4A0414207C2
:101A400006D0C01D0D4920F00700411AC1F5A04184
:101A50000B4A00230144C2E900030839103A21F07F
:101A6000070111604B600B600B1AC0E90013936013
:101A70004FF000405360D060704700002C5A0020A7
:101A8000C8000020144D4FF08056144F144C40F6FF
:101A90008C48FFF739FF2868012804D93E60BFF35E
:101AA0004F8FBFF36F8FFFF7ADFF0228F1D301F027
:101AB00001F8A06AE168884204D2424609A10EA05A
:101AC000FEF7FAFBFFF79EFF022801D300F03EFD70
:101AD00001F0AEFCDDE700002057002004ED00E03F
:101AE000680000202E2E5C4672656552544F535C90
:101AF0007461736B732E63004572726F723A257353
:101B00002C25640D0A0000002DE9F047DDE9098469
:101B10000E461746824691009946089DA522206BE5
:101B2000FEF7B5FC6FF00301206B01EB8701084461
:101B300020F00707780705D040F22B3219A11EA02C
:101B4000FEF7BAFB00202218315C82F83410315CB9
:101B500011B1401C1028F6D3002684F84360202DD4
:101B600000D31F25E562C4E91356201D00F0E9FBF0
:101B700004F1180000F0E5FB2461C5F12000646267
:101B8000A061666584F858604A465146384600F0C0
:101B900003FB2060B8F1000F01D0C8F80040BDE899
:101BA000F08700002E2E5C4672656552544F535CE0
:101BB0007461736B732E63004572726F723A257392
:101BC0002C25640D0A00000030B5114900E01146D3
:101BD0000A688242FBD34B685C18844203D1406898
:101BE00018444860084643681C18944209D1084CC0
:101BF000103C2468A24209D052681A4442600A6824
:101C000012680260814200D0086030BD0460F9E7CC
:101C1000C800002070B5002441600B4D0061914266
:101C200006D8D11A8269914206D2011D286907E0BF
:101C30009A4203D2994201D3012403E0011DE868CE
:101C400000F082FB204670BDA400002010B50446C1
:101C500000F09EFBA06B20B1002400F0D5FB2046D5
:101C600010BD0124F9E700002DE9F34100980F466B
:101C70000026846C2CB940F6CE1216A11AA0FEF7ED
:101C80001BFBA06BE16B884205D340F6CF1211A17C
:101C900015A0FEF711FBA06BE16B88420CD294F902
:101CA00045503A4669462046FFF76BFE0646681CDB
:101CB00005D06D1C84F845503046BDE8FC81606A53
:101CC0000028F9D004F1240001F064FB0028F3D0CF
:101CD0000126F1E72E2E5C4672656552544F535C27
:101CE00071756575652E63004572726F723A257362
:101CF0002C25640D0A000000F8B5054614480E4670
:101D0000C068C068C468201D00F0FEFAE0690128C0
:101D100017D1A0692B46411932462046FFF77AFFBA
:101D200078B100200346014600902A46204601F083
:101D300065FC30B907494FF4027201F11800FEF753
:101D4000BBFA616A01B02046BDE8F04008470000D8
:101D5000A40000206035000870B586B02F4E53E017
:101D60000198002806DADDE90301029A90470198FC
:101D7000002849DB039C606910B1201D00F0C4FA03
:101D800005A800F0A7F8054601980A283CD2DFE82C
:101D900000F00505053B273805053B270298A1699A
:101DA000034601442A462046FFF734FF00282BD083
:101DB000616A20468847E069012825D1002000900B
:101DC0000298A169002342181946204601F016FC2A
:101DD000D0B940F2213212A117A0FEF76DFA13E03C
:101DE0000298A06128B94FF44E720DA112A0FEF71F
:101DF00063FAA0692B4641191A462046FFF70AFFED
:101E000002E0204600F032FB00231A4601A93068A8
:101E100000F024FF0028A3D106B070BDA40000206C
:101E20002E2E5C4672656552544F535C74696D6525
:101E300072732E63000000004572726F723A257350
:101E40002C25640D0A000000F8B50D46064600F08A
:101E500031FE684600F03EF80446009810B101F0EB
:101E6000E7FAF8BD1148ADB101690968D9B100259B
:101E7000311B2A46006800F02BFC01F0D9FA00283B
:101E8000EFD10B494FF080500860BFF34F8FBFF385
:101E90006F8FF8BDA642EBD801F0CAFA2146304652
:101EA000FFF72AFFF8BD0125E2E70000A4000020AB
:101EB00004ED00E00648416B096829B1416BC9682F
:101EC000C9684968816270474FF0FF31FAE7000046
:101ED0006800002070B5054601F088F9064E0446FA
:101EE000B068844203D200F009F8012000E000202D
:101EF00028602046B46070BDA4000020F8B5184EDC
:101F000026E0C068C4680568201D00F0FDF9616A1C
:101F100020468847E06901281AD1A0692844A842D0
:101F200006D924616060211DF06800F00DFA0FE011
:101F300000200346014600902A46204601F05EFB41
:101F400030B9084940F2923201F11800FEF7B4F9B5
:101F5000F06801680029D4D13169C6E90310F8BDE1
:101F6000A40000206035000808484068401C04D0E8
:101F7000F42207A111A0FEF79FF9502080F31188E9
:101F8000BFF34F8FBFF36F8FFEE70000D00000203C
:101F90002E2E5C4672656552544F535C706F72749E
:101FA00061626C655C525644535C41524D5F434DD7
:101FB000335C706F72742E63000000004572726FA4
:101FC000723A25732C25640D0A000000084CE06865
:101FD000016839B1002139B10020FFF735FFFFF763
:101FE000BBFEF4E70121F6E7C0680068F5E70000F2
:101FF000A40000202DE9F041044600F0C9F994F94D
:10200000455004F1240610E0A06C20B100212046C8
:10201000FFF72AFE04E0606A48B1304601F0BAF9E1
:1020200008B100F013FC6D1E6DB2002DECDC4FF01A
:10203000FF3684F8456000F0E7F900F0A9F994F95B
:10204000445004F1100709E0206948B1384601F016
:10205000A1F908B100F0FAFB6D1E6DB2002DF3DCA2
:1020600084F84460BDE8F04100F0CEB92DE9F041BC
:102070000546002600F01EFD324F386808B9FFF70C
:10208000DBFCF86805424FD1002D4DD008356807BC
:102090000BD005F00700C0F108000544680704D024
:1020A000BF2229A132A0FEF707F9002D3CD07868A5
:1020B000854239D8234910310846046801E0214699
:1020C00004466068A84202D220680028F7D1386828
:1020D000B846844228D00E682068086060680836D8
:1020E000401B10280ED96719780704D0EC2216A1DE
:1020F0001FA0FEF7E1F86068401B78603846656015
:10210000FFF762FD6168D8F804004246401AC8F83B
:102110000400D8F80830984200D29060D8F80C003B
:1021200001430020C4E9000101F082F9700705D0E5
:102130004FF4967204A10EA0FEF7BEF83046BDE83B
:10214000F0810000B80000202E2E5C4672656552BA
:10215000544F535C706F727461626C655C4D656D59
:102160004D616E675C686561705F342E63000000CE
:102170004572726F723A25732C25640D0A000000B7
:102180000449086818B10868026D521C02650868A5
:10219000704700006800002010B5031F4FF08074E6
:1021A0001C601B1F21F001011960191F024B0B60FD
:1021B000143940380A6010BD691F00087CB500F072
:1021C000E7F800220221042000F00CFD184C002248
:1021D00002212061042000F005FD6061211D032023
:1021E000CDE900014FF4807500232A4611A114485F
:1021F00000F0C2FF04F108010220CDE90001002334
:10220000802210A1134800F0B7FF04F10C01042054
:10221000CDE9000100232A460FA1124800F0ACFFCF
:10222000206800F0ADFABDE87C4000F0EDB8000099
:10223000000000206164635F7461736B0000000044
:10224000CD1400086B657970726F636573735F748A
:1022500061736B00450C00087069645F7461736B97
:10226000000000001D17000870B5054686B001216A
:1022700044F20400FEF70CFE4FF40070ADF81000BD
:1022800003248DF8124018201D4E8DF8130004A968
:102290003046FEF7AAFB3015ADF8100004208DF88B
:1022A000130004A93046FEF7A0FB25208DF814008A
:1022B0008DF815408DF8164001208DF8170005A8FF
:1022C000FEF72CFD0020ADF80400ADF80600ADF8D7
:1022D0000800ADF80C000C200A4CADF80A0000957F
:1022E00069462046FFF758F8012240F22551204662
:1022F000FFF73AF801212046FFF706F806B070BD57
:102300000008014000380140D0E9013201699A60BB
:10231000D0E901235A604A68824201D182684A604A
:10232000002202610868401E0860704700F1080141
:102330004FF0FF32C0E90112C1600161002101606C
:10234000704700210161704730B50C68621C02D0F3
:1023500000F1080202E0026904E01A4653681D68B1
:10236000A542FAD953684B6099608A605160086150
:102370000168491C016030BD42684A6093688B6007
:1023800093685960916008610168491C0160704759
:10239000502080F31188BFF34F8FBFF36F8F09492F
:1023A0004868401C486001280AD10748006810F0BE
:1023B000FF0F05D04FF4BD7204A10FA0FDF77CBF45
:1023C00070470000D000002004ED00E02E2E5C4697
:1023D00072656552544F535C706F727461626C65C4
:1023E0005C525644535C41524D5F434D335C706FB9
:1023F00072742E63000000004572726F723A25738A
:102400002C25640D0A00000010B5084C606828B93E
:1024100040F2811206A111A0FDF74EFF6068401E38
:10242000606001D180F3118810BD0000D000002051
:102430002E2E5C4672656552544F535C706F7274F9
:1024400061626C655C525644535C41524D5F434D32
:10245000335C706F72742E63000000004572726FFF
:10246000723A25732C25640D0A00000070B500280F
:102470002AD0164DA0F108046068E968084205D129
:102480004FF4A07212A11CA0FDF716FF206828B11E
:1024900040F241120EA118A0FDF70EFF6068E96836
:1024A000084211D02268002A0ED18843606000F0F3
:1024B00001FB60686968084468602046FFF784FB98
:1024C000BDE8704000F0B4BF70BD0000B80000204F
:1024D0002E2E5C4672656552544F535C706F727459
:1024E00061626C655C4D656D4D616E675C686561D0
:1024F000705F342E630000004572726F723A25736C
:102500002C25640D0A00000010B50E484FF47A73B4
:102510000D4A00686FF07F44B0FBF3F19160B4FBAB
:10252000F1F1D160B0FBF0F12D24B4FBF1F11161B8
:10253000B0FBF3F14FF0E020491E4161072101613A
:1025400010BD000018000020D00000202DE9F0414F
:10255000324E0446F068844200D904464FF0E0272A
:10256000386920F001003861B969B268601E02FB69
:1025700000153069854200D92D1A72B6BFF34F8F0E
:10258000BFF36F8FFFF732F808B37D610022BA61A5
:10259000386940F00100386124B1BFF34F8F30BF7C
:1025A000BFF36F8F386920F00101396162B6C00353
:1025B00019D5B869B168281A081A3369401E9842BB
:1025C00001D3884200D9481E7861641E15E0B869BD
:1025D0007861386940F001003861B068401E786168
:1025E00062B6BDE8F081B068B9694443611AB1FBD5
:1025F000F0F4631C4343581A7861BA61FFF7C8FED0
:10260000386940F001003861204600F02DFAB068CA
:10261000401E7861BDE8F041FFF7F6BED000002013
:1026200010B5FDF723FE104C10280CD300F1E0206C
:1026300090F8F0032178884205D24FF42A720BA15A
:1026400015A0FDF739FE18480068616900F4E060E4
:10265000884207D9BDE810404FF42E7203A10EA0A6
:10266000FDF72ABE10BD0000D00000202E2E5C46D3
:1026700072656552544F535C706F727461626C6521
:102680005C525644535C41524D5F434D335C706F16
:1026900072742E63000000004572726F723A2573E7
:1026A0002C25640D0A0000000CED00E010B5074B6E
:1026B000002253F832401CB1521C082AF9D310BD35
:1026C00043F8321003EBC201486010BDE056002011
:1026D00070B515460E460446FFF75AFE94F94410AD
:1026E0000020491C01D184F8440094F94510491C8C
:1026F00001D184F84500FFF787FEA06B28B92A4670
:10270000314604F1240000F0D1F82046BDE87040C5
:10271000FFF770BC10B5040012D00E49096B29B147
:1027200040F2CF420CA111A0FDF7C6FD00F0C2F9A6
:1027300000212046FFF720F800F07AFE002807D19C
:102740000E494FF080500860BFF34F8FBFF36F8F7B
:1027500010BD0000680000202E2E5C467265655298
:10276000544F535C7461736B732E63004572726FC8
:10277000723A25732C25640D0A00000004ED00E078
:1027800070B50446FFF704FE234D04B92C68201DE4
:10279000FFF7BAFD58B9E06A204A00EB800152F811
:1027A000211021B901218140286988432861A06A4C
:1027B00018B104F11800FFF7A7FD686A401C6862B1
:1027C0002868844207D1211D1548FFF7D5FD6868A8
:1027D000401C686007E0A868401EA8602046FFF71C
:1027E00006F9FFF767FBFFF70FFE6869002812D0B4
:1027F000286884420FD1286B28B140F2654209A1B4
:102800000DA0FDF759FD10494FF080500860BFF34F
:102810004F8FBFF36F8F70BD6800002020570020DE
:10282000DC5900202E2E5C4672656552544F535C75
:102830007461736B732E63004572726F723A257305
:102840002C25640D0A00000004ED00E00149012080
:10285000C86170476800002070B50D46040005D1BE
:1028600040F6063207A10CA0FDF726FD0E480168D0
:1028700020461831FFF768FD2846BDE87040012169
:10288000FEF77ABF2E2E5C4672656552544F535C3C
:102890007461736B732E63004572726F723A2573A5
:1028A0002C25640D0A0000006800002070B5144655
:1028B0000E46050005D140F6313209A10DA0FDF705
:1028C000FBFC1048016828461831FFF755FD0CB194
:1028D0004FF0FF3621463046BDE87040FEF74CBF52
:1028E0002E2E5C4672656552544F535C7461736B57
:1028F000732E63004572726F723A25732C25640D36
:102900000A0000006800002070B5040039D01D4D99
:10291000E06A2968C96A884233D2A069002804DBCA
:102920002868C06AC0F12000A061E06A164E00EB82
:102930008000616906EB800081421FD1201DFFF7F6
:10294000E3FC012150B9E06A00EB800256F8222036
:1029500022B92A6901FA00F082432A612868C06A14
:10296000E0622A6981401143296100EB800006EB97
:102970008000211DBDE87040FFF7FEBC2868C06ADA
:10298000E06270BD680000202057002010B50400F0
:1029900005D140F6C13205A109A0FDF78DFC0C4818
:1029A000016A2160C068606010BD00002E2E5C4688
:1029B00072656552544F535C7461736B732E630080
:1029C0004572726F723A25732C25640D0A0000005F
:1029D000680000201CB517480024CDE900402346BC
:1029E000822215A1164800F0C7FB012803D100F090
:1029F000CBFD01280AD0401C1BD102B040F28472EA
:102A0000BDE810400FA114A0FDF756BC502080F384
:102A10001188BFF34F8FBFF36F8F06484FF0FF3120
:102A20002C38816201214161C460BDE81C4000F086
:102A300087B81CBD9400002049444C4500000000AC
:102A4000851A00082E2E5C4672656552544F535C01
:102A50007461736B732E63004572726F723A2573E3
:102A60002C25640D0A00000070B5084D0446E86886
:102A7000A96A2044884205D940F6711204A109A030
:102A8000FDF71AFCE8682044E86070BD680000208B
:102A90002E2E5C4672656552544F535C7461736BA5
:102AA000732E63004572726F723A25732C25640D84
:102AB0000A0000000248016B491C016370470000D6
:102AC0006800002070B5134D286B10B10120E8613B
:102AD00070BD0020E86128690F4EB0FA80F0C0F1A7
:102AE0001F0000EB800456F8240028B940F6F622B7
:102AF0000AA10FA0FDF7E0FB06EB840000F108023D
:102B0000416849684160914201D149684160C868A3
:102B1000286070BD68000020205700202E2E5C46E3
:102B200072656552544F535C7461736B732E63000E
:102B30004572726F723A25732C25640D0A000000ED
:102B40001CB51A4908780190FF20087008788DF8A4
:102B500000009DF80000164C00F050002070072087
:102B6000606107E06069401E60619DF80000400000
:102B70008DF800009DF800000006F3D4207D0002CF
:102B800000F4E0606061019808700A48016841F44F
:102B900070010160016841F070410160FFF7B4FC11
:102BA00000206060FDF72CFB00201CBD00E400E06D
:102BB000D000002020ED00E010B5502080F31188F7
:102BC000BFF34F8FBFF36F8F00F016FB18B10449AE
:102BD0004FF080500860002080F3118810BD000085
:102BE00004ED00E02DE9F04117460E46050005D141
:102BF0004FF4C47210A115A0FDF75EFBBEB105FB3A
:102C000006F05430FFF732FA04000ED004F15400FD
:102C10007EB12060C4E90F562046012100F0E0F8A3
:102C200084F8507000212046A164BDE8F0810020A6
:102C3000E7E72460EEE700002E2E5C4672656552E1
:102C4000544F535C71756575652E63004572726FE4
:102C5000723A25732C25640D0A0000002DE9FF4F00
:102C600083B09B468A4604004FF0000605D140F22F
:102C7000DC4251A155A0FDF71FFBBAF1000F07D1AF
:102C8000206C28B140F2DD424BA150A0FDF714FBAF
:102C900000F09EFA38B9059828B14FF49C6246A11D
:102CA0004AA0FDF709FB4FF000094FF08057DFF80D
:102CB0002C81FFF76DFBA56B45B351462046E668B6
:102CC000FEF74CFEBBF1000F13D0E660606A50B116
:102CD00004F1240000F05EFB28B1C8F80070BFF3D7
:102CE0004F8FBFF36F8FFFF78FFB012007B0BDE859
:102CF000F08F6D1EA563206810B9FFF741FA606080
:102D000020690028EFD004F11000E3E7059808B12E
:102D10001EB106E0FFF778FB27E06846FFF736FEB6
:102D20000126FFF771FBFFF7C5FEFFF731FB94F9B2
:102D30004400401C01D184F8449094F94500401CA3
:102D400001D184F84590FFF75FFB05A9684600F0C4
:102D5000CFF9002820460AD0FFF74CF900F068FBB5
:102D60002046FEF773FF0028A3D00020BEE7FEF741
:102D70006DFFD8B1206830B9FFF70AFB6068FFF734
:102D8000C3FDFFF741FB04F124000599FFF764FD43
:102D90002046FFF72FF900F04BFB002889D1C8F837
:102DA0000070BFF34F8FBFF36F8F82E72046FFF7AE
:102DB00021F900F03DFB7CE72E2E5C4672656552E2
:102DC000544F535C71756575652E63004572726F63
:102DD000723A25732C25640D0A00000004ED00E012
:102DE00070B50D46040005D140F21B121CA121A0B4
:102DF000FDF762FAFFF7CCFAD4E90F20216802FB55
:102E0000001161600021A1632168A1600A46D4E934
:102E10000F01401E00FB0121E16021464FF0FF3011
:102E200001F8440F487004F110004DB1FFF77EFA2D
:102E300004F12400FFF77AFAFFF7E6FA012070BDEB
:102E400021690029F8D000F0A5FA0028F4D00D4936
:102E50004FF080500860BFF34F8FBFF36F8FEBE7E9
:102E60002E2E5C4672656552544F535C71756575C4
:102E7000652E63004572726F723A25732C25640DBE
:102E80000A00000004ED00E02DE9FF4F83B09946F1
:102E90008B4604004FF0000605D140F2D92252A122
:102EA00056A0FDF709FABBF1000F07D1206C28B13D
:102EB00040F2DA224CA151A0FDF7FEF9B9F1020F60
:102EC00008D1E06B012805D040F2DB2246A14BA0DF
:102ED000FDF7F2F900F07CF938B9059828B140F215
:102EE000DE2241A145A0FDF7E7F94FF0000A4FF0BF
:102EF0008057DFF81881FFF74BFAA06BE16B88422F
:102F000006D3B9F1020F03D0059800B316B325E03C
:102F10004A4659462046FEF734FDA16C21B1494688
:102F20002046FEF7A1FE05E0616A19B104F1240014
:102F300000F030FA28B1C8F80070BFF34F8FBFF32C
:102F40006F8FFFF761FA012007B0BDE8F08FFFF740
:102F50005BFA21E06846FFF719FD0126FFF754FAF6
:102F6000FFF7A8FDFFF714FA94F94400401C01D1C3
:102F700084F844A094F94500401C01D184F845A090
:102F8000FFF742FA05A9684600F0B2F830B12046D2
:102F9000FFF730F800F04CFA0020D5E7FFF7F8F91A
:102FA000A06BE16B884201D1012500E00025FFF70D
:102FB0002BFA95B104F110000599FFF74DFC20465E
:102FC000FFF718F800F034FA002894D1C8F8007020
:102FD000BFF34F8FBFF36F8F8DE72046FFF70AF8DF
:102FE00000F026FA87E700002E2E5C4672656552D7
:102FF000544F535C71756575652E63004572726F31
:10300000723A25732C25640D0A00000004ED00E0DF
:103010002DE9F047984615468946040005D140F24F
:103020009F322AA12EA0FDF747F9B9F1000F07D171
:10303000206C28B14FF4687224A129A0FDF73CF957
:10304000B8F1020F08D1E06B012805D040F2A1329F
:103050001EA123A0FDF730F9FFF7E2FA5020EFF3AD
:10306000118780F31188BFF34F8FBFF36F8FA06B71
:10307000E16B884207D3B8F1020F04D0002087F338
:103080001188BDE8F08794F94560424649462046DC
:10309000FEF777FC701C04D0761C84F84560012094
:1030A000EDE7A06C012620B141462046FEF7DCFD8D
:1030B00006E0606A0028F2D004F1240000F06AF90A
:1030C0000028ECD0002DEAD02E60E8E72E2E5C46DA
:1030D00072656552544F535C71756575652E63005A
:1030E0004572726F723A25732C25640D0A00000038
:1030F00070B50D46040005D140F6CB3214A119A0DD
:10310000FDF7DAF82DB940F6CC3211A115A0FDF784
:10311000D3F8FFF73DF9174AD06829684B1C0FD048
:103120002368126A934202D0626882420AD96268B6
:10313000801A884206D2081A28602046FFF726FC2B
:10314000002400E00124FFF75FF9204670BD000075
:103150002E2E5C4672656552544F535C7461736BDE
:10316000732E63004572726F723A25732C25640DBD
:103170000A000000680000202DE9FF5F8346DDE9BA
:103180000E87994616468A469000FEF76FFF0500A7
:103190001AD05C20FEF76AFF040012D025630021DC
:1031A000CDE90241CDE900874B46324651465846AB
:1031B000FEF7AAFC2046FEF717FB012004B0BDE88D
:1031C000F09F2846FFF752F94FF0FF30F6E7000076
:1031D0000548416919B1006B18B100207047012002
:1031E0007047022070470000680000200148C06856
:1031F00070470000680000202DE9F0412D4F0026A7
:10320000386B40B1B869401CB861F86900B101265B
:103210003046BDE8F081FD686D1CFD6011D1786B12
:10322000006828B140F6D91223A128A0FDF744F880
:10323000786BB96B7963B863386A401C3862FEF703
:1032400039FEB86ADFF89480854209D3786B00684C
:1032500080B1786BC068C468606885420DD2B8627E
:103260003868C06A00EB800158F821000128CCD9E9
:103270000126CAE74FF0FF30F1E7201DFFF744F8C1
:10328000A06A18B104F11800FFF73EF8E06A0121C6
:103290003A6981401143396100EB800108EB8100FC
:1032A000211DFFF769F8E06A3968C96A8842CDD301
:1032B0000126CBE7680000202E2E5C467265655221
:1032C000544F535C7461736B732E63004572726F5D
:1032D000723A25732C25640D0A0000002057002047
:1032E00070B504004FF000063CD01F4D28688442A2
:1032F00005D040F6C7621DA121A0FCF7DDFF206DBF
:1033000028B940F6C96219A11DA0FCF7D5FF206DB0
:10331000401E2065E26CE16A914223D010BB201D63
:10332000FEF7F2FF1A49012250B9E06A00EB800370
:1033300051F8233023B92B6902FA00F083432B6143
:10334000E06CE062C0F12000A061E06A2B6982407D
:103350001A432A6100EB800001EB8000211DFFF77A
:103360000BF80126304670BD680000202E2E5C460A
:1033700072656552544F535C7461736B732E6300B6
:103380004572726F723A25732C25640D0A00000095
:10339000205700202DE9F041C068C4682CB940F6E0
:1033A000613217A11BA0FCF787FF04F11800074644
:1033B000FEF7AAFF1B4D286B012658B139461A4863
:1033C000FEF7DAFFE06A2968C96A884212D9012447
:1033D000EE6110E0201DFEF797FFE06A2A6906FA09
:1033E00000F111432961114900EB800001EB8000DD
:1033F000211DE5E70024FEF75DFD2046BDE8F081D4
:103400002E2E5C4672656552544F535C7461736B2B
:10341000732E63004572726F723A25732C25640D0A
:103420000A00000068000020C85900202057002032
:103430002DE9F0472B4D00242746286B28B94FF47F
:10344000FD6229A12DA0FCF737FFFEF7A1FF286B35
:10345000401E2863286BE8BBA8682C490126C8B326
:10346000A1F52A798846D8F80010E9B1D8F80C00FF
:10347000C46804F11800FEF747FF201DFEF744FF63
:10348000E06A2A6906FA00F11143296100EB800124
:1034900009EB8100211DFEF76FFFE06A2968C96A08
:1034A0008842E0D3EE61DEE70CB1FEF703FDAC69C4
:1034B0003CB1FFF7A1FE00B1EE61641EF9D100201E
:1034C000A861E86930B11249012738070860BFF3E5
:1034D0004F8F00E001E0BFF36F8FFEF795FF384696
:1034E000BDE8F087680000202E2E5C4672656552AC
:1034F000544F535C7461736B732E63004572726F2B
:10350000723A25732C25640D0A000000C85900206A
:1035100004ED00E02DE9F0470746994616460D46B2
:103520002C20DDF820A0FEF7A1FD040014D0B84641
:103530004F46D1462DB94FF4C67209A10EA0FCF733
:10354000BBFEFEF7B9F904F11801C4F8008081E868
:10355000E002201DFEF7F5FE2046BDE8F0870000E2
:103560002E2E5C4672656552544F535C74696D65CE
:1035700072732E63000000004572726F723A2573F9
:103580002C25640D0A0000001CB50024FEF794F9F8
:103590000C48006868B10B491F20091DCDE90001E6
:1035A00000234FF4827208A10948FFF7E5FD0400EB
:1035B00005D140F2331207A10CA0FCF77DFE204696
:1035C0001CBD0000A4000020546D722053766300DF
:1035D000CD1F00082E2E5C4672656552544F535C19
:1035E00074696D6572732E63000000004572726F1E
:1035F000723A25732C25640D0A0000002DE9FF475F
:10360000DDF830A0994690460D4606004FF00007C1
:1036100005D14FF4D37212A117A0FCF74DFE1A4C3E
:10362000206880B1CDE900580296062D11DAFFF727
:10363000CFFD02284FF0000309D000226946206820
:10364000FFF722FC074604B03846BDE8F087524633
:10365000F4E700234A466946FFF7DAFCF2E7000088
:103660002E2E5C4672656552544F535C74696D65CD
:1036700072732E63000000004572726F723A2573F8
:103680002C25640D0A000000A400002002494FF020
:10369000000000F018BB00BF0000F87F4FEA115394
:1036A000A3F58063D3F11E03A8BFD3F1200C08DB80
:1036B0004FF0004242EAC12252EA505232FA03F07D
:1036C000704709420BD4102BC4BF0020704703F58C
:1036D000787CBCF1FF3F05D04FF0FF3070474FF0D2
:1036E0000000704770B500F0C3F800BF4992248015
:1036F00000207047F0E7B0FA80F310FA03F10AD027
:10370000C3F11D0303F580634FEA41504FEA0352B2
:1037100002EBD12170474FF000007047DFF848C13D
:1037200070B51CEA111E1EBF1CEA13159EEA0C0F91
:1037300095EA0C0F00F06F8081EA030423EA4C1332
:103740004EEAD47E21EA4C1141F4801143F48013F7
:10375000AE44A1FB024CA0FB0365AEF17F7E36199F
:1037600055EB0C05A1FB034C4CF10003A0FB021C24
:1037700016EB0C06654153F10003094218BF46F0F1
:10378000010613F4007F0BD14FEA03314FEA0530F5
:10379000340341EA155140EA16506FF003020AE083
:1037A0004FEAC3214FEAC520F40241EA555140EAED
:1037B00056506FF0020202EB2E4201EB025585EAF1
:1037C000CE710AD05FEA440C18BF24F0004450F1D7
:1037D000000041F1000120EAD47040F2FE7C624515
:1037E00000D270BDA84214BF4FF080444FF0404457
:1037F000002E08BF0024BEF1806FA8BFA1F1C04118
:10380000BDE8704080F282804FF0000001F1C041BD
:1038100001F0004170479EEA0C0F0CEA131518BF27
:1038200095EA0C0F06D04FF0000081EA030E0EF06F
:10383000004170BD00F01CF88900013E00F007B89F
:1038400000F009B84FEA430C5FEA5C5C08D081EAFB
:10385000030100F05BB84FEA410C5FEA5C5CF6D113
:103860004FF00000014970470000FF070000F87F9B
:103870000EF1020E2EF0030E5EF8046B364205D4F4
:10388000012A43EB030515F5001F12D8012841EB6F
:10389000010C1CF5001F0CD80ED14FEAD17C15F598
:1038A000001F0CEB4C0C0CF1020C08BF4CEBD37C52
:1038B00004E04FF0080C01E04FEAD37C0CEB4C0520
:1038C00026FA05F606F00706B6F1040C06D20EEB52
:1038D000860CBDE870404CF0010C6047DFE80CF04E
:1038E000090B02024FF000414FF00000A1F500214A
:1038F00070BD19461046012851EB010418BFD4F5DC
:10390000001484BF002001F0004170BD0808A0F53C
:1039100000114FEA3101704790EA010F48BF81F072
:10392000004100F16281421A3CBF801A89184FEAB7
:10393000D0524FF07F4C1CEA410FA2EBD15318BF7D
:103940009CEA026F00F03B804FF0004C4CEA0020F4
:103950004CEA012121FA03FC10EB0C0C1ED202F1FF
:10396000FF325FEA1C2040EBC25038BF70471CF0AA
:103970007F0F4FEA400C18BFBCF17F4F38BF704734
:10398000C3F12003994008BF20F00100BCF17F4F34
:1039900038BF7047A0F1C04000F01BB94FEA3C00AF
:1039A000000A40EBC25028BF1CF0FF0F4FEA400C4A
:1039B000E6D018BFBCF17F4F38BF7047EAE79CEAFA
:1039C000026F05D010EA5C0F08BF00F0004070479E
:1039D00010B500F0B8F800BF64FBBE3E41000B0E0E
:1039E000D3F19E0208D950F400034FEA032323FACF
:1039F00002F048BF4042704710B500F0A4F800BF85
:103A000049922480002070476FF0004282EA200033
:103A10007047000010F0004148BF4042B0FA80F308
:103A200010FA03F2C3F19D030BD051EAC35101EB2D
:103A30001220530638BF704700F1010008BF20F084
:103A4000010070474FF47F0C1CEAD0121EBF1CEA25
:103A5000D11392EA0C0F93EA0C0F00F0478090EA22
:103A6000010F48BF42F480724FF0004C4CEA002036
:103A70004CEA012102EB0302A0FB0113A2F50002B4
:103A8000002918BF43F001035B0028BF4FEA33034E
:103A900042EB22425FEA132C4CEBC2502EBFBCEB30
:103AA000436FB2F57C0F70474FEA036CBCF1004FD7
:103AB00008BF20F00100B2F57C0F38BF70470BD56E
:103AC00082F0FF0212F5803FC8BF704700F1C0408E
:103AD000D8BF00F00040704700F5000C5FEA4C0CC6
:103AE00048BF7047B0F1C04000F073B890EA010FD2
:103AF0000CEAD11348BF42F48072624538BF634577
:103B000004D280EA010000F00040704710B500F0D8
:103B10001AF800BF8900013E00F007B800F009B8AC
:103B20005FEA410C5FEA1C6C08D080EA010000F0FB
:103B300050B85FEA400C5FEA1C6CF6D14FF00040D1
:103B4000A0F5800070470EF1020E2EF0030E5EF815
:103B5000044B244204D44FEA4102B2F17F4F11D802
:103B60004FEA4003B3F17F4F0CD80ED14FEAD07C1F
:103B7000B2F17F4F0CEB4C0C0CF1020C08BF4CEB7C
:103B8000D17C04E04FF0080C01E04FEAD17C0CEB53
:103B90004C0324FA03F404F00704B4F1040C06D235
:103BA0000EEB840CBDE810404CF0010C6047DFE8E0
:103BB0000CF0070802024FF00040A0F5800010BD95
:103BC0000846420018BFD2F1807288BF00F0004062
:103BD00010BDFF2141EAD050C005704790EA010FA7
:103BE00048BF81F000413FF59EAE421A04D882F0F2
:103BF0000042A0EB020011444FEAD0524FF07F4C3C
:103C00001CEA410FA2EBD15318BF9CEA026F4AD0C5
:103C10004FF0004C4CEA00204CEA012121FA03FC51
:103C2000B0EB0C0C0FD412F0FE0F36D05FEA4C0054
:103C30001DD5001240EBC25038BF70471CF03F0F3B
:103C400018BF70470BE0A2F101025FEA1C2040EBB5
:103C5000C25038BF70471CF07F0F18BF7047C3F1C8
:103C60002003994014BF401E20F0010070478008D7
:103C70004FEA122308BF7047B0FA80FCA2EB0C0297
:103C8000CCF1280C60FA0CF093EA122F04BF00EB81
:103C9000C25070474FEAC3707047130A5FEADC10E6
:103CA00008BF7047F6E79CEA026F04D010EA5C0F89
:103CB00008BF0020704710B5FFF745FF40DFF63E14
:103CC00081F0004070470CF00F03092B08BF08205B
:103CD00000F059800A2B0BD0082B18BF704708BF83
:103CE0001CF0400F0AD04FF000004FF00001704769
:103CF0001CF0400F18BF4FF0004070471CF0100F31
:103D000008D020F0704300F07F4242EAD3014FEA2E
:103D10004370704700F0604021F07F4242EA0002A9
:103D200001F07F4040EA727070474FF0FF0C4CF496
:103D3000E06C1CEA11531CBF9CEA030C9445C2BF03
:103D4000DA4201EB02517047002B0DD0BCF1000F9D
:103D50000FD0002A01F00041A4BF41F0E04141F042
:103D60007F614FF00000704701F000414FF000000C
:103D7000704750EA01334FF09B0C18BF4CF0806C39
:103D80007FF484AC70471CF4801F11D01CF4E02F2A
:103D900003D06FEACC31490070474FF04050EFF349
:103DA000008222F0704242EA000282F300887047EB
:103DB0004FF000007047000080020000010000008A
:103DC0002000000020000000005000002000000043
:103DD000F03D000800000020E80000006C01000831
:103DE000D83E0008E8000020A8AF000088010008C5
:103DF00000000000000000000000000000000000C3
:103E0000000000000000000000A24A0400000000C2
:103E10000000000001020304060708090100000079
:103E2000000000000000000002040608000000007E
:103E30000102030401020304060708099D16000895
:103E4000D9160008E001002000000068E0510020C1
:103E500020000068000000000000000000000000DA
:103E60000000000000000000000000000000000052
:103E70000000000000000000000000000000000042
:103E80000000000000000000000000000000000032
:103E90000000000000000000000000000000000022
:103EA0000000000000000000000000000000000012
:103EB0000000000000000000000000000000000002
:103EC00000000000AAAAAAAA00000000000000004A
:083ED0000000000000000000EA
:040000050800027578
:00000001FF
